{
    "_format": "hh-sol-artifact-1",
    "contractName": "WavePortal",
    "sourceName": "contracts/WavePortal.sol",
    "abi": [
        {
            "inputs": [],
            "stateMutability": "nonpayable",
            "type": "constructor"
        },
        {
            "inputs": [],
            "name": "getAddressCount",
            "outputs": [
                {
                    "internalType": "address[]",
                    "name": "",
                    "type": "address[]"
                }
            ],
            "stateMutability": "view",
            "type": "function"
        },
        {
            "inputs": [],
            "name": "getTotalWaves",
            "outputs": [
                {
                    "internalType": "uint256",
                    "name": "",
                    "type": "uint256"
                }
            ],
            "stateMutability": "view",
            "type": "function"
        },
        {
            "inputs": [],
            "name": "wave",
            "outputs": [],
            "stateMutability": "nonpayable",
            "type": "function"
        }
    ],
    "bytecode": "0x608060405234801561001057600080fd5b5061003c60405180606001604052806022815260200161095e6022913961004160201b6102661760201c565b6101c4565b6100dd816040516024016100559190610142565b6040516020818303038152906040527f41304fac000000000000000000000000000000000000000000000000000000007bffffffffffffffffffffffffffffffffffffffffffffffffffffffff19166020820180517bffffffffffffffffffffffffffffffffffffffffffffffffffffffff83818316178352505050506100e060201b60201c565b50565b60008151905060006a636f6e736f6c652e6c6f679050602083016000808483855afa5050505050565b600061011482610164565b61011e818561016f565b935061012e818560208601610180565b610137816101b3565b840191505092915050565b6000602082019050818103600083015261015c8184610109565b905092915050565b600081519050919050565b600082825260208201905092915050565b60005b8381101561019e578082015181840152602081019050610183565b838111156101ad576000848401525b50505050565b6000601f19601f8301169050919050565b61078b806101d36000396000f3fe608060405234801561001057600080fd5b50600436106100415760003560e01c80636fe15b44146100465780639a2cdc0814610050578063cdbb02af1461006e575b600080fd5b61004e61008c565b005b610058610149565b60405161006591906105e0565b60405180910390f35b610076610194565b604051610083919061053c565b60405180910390f35b600160008082825461009e9190610650565b925050819055506001339080600181540180825580915050600190039060005260206000200160009091909190916101000a81548173ffffffffffffffffffffffffffffffffffffffff021916908373ffffffffffffffffffffffffffffffffffffffff1602179055506101476040518060400160405280600d81526020017f2573206861732077617665642100000000000000000000000000000000000000815250336102ff565b565b600061018c6040518060400160405280601781526020017f5765206861766520256420746f74616c2077617665732100000000000000000081525060005461039b565b600054905090565b60606101da6040518060400160405280601581526020017f25642061646472657373657320696e20746f74616c000000000000000000000081525060018054905061039b565b600180548060200260200160405190810160405280929190818152602001828054801561025c57602002820191906000526020600020905b8160009054906101000a900473ffffffffffffffffffffffffffffffffffffffff1673ffffffffffffffffffffffffffffffffffffffff1681526020019060010190808311610212575b5050505050905090565b6102fc8160405160240161027a919061055e565b6040516020818303038152906040527f41304fac000000000000000000000000000000000000000000000000000000007bffffffffffffffffffffffffffffffffffffffffffffffffffffffff19166020820180517bffffffffffffffffffffffffffffffffffffffffffffffffffffffff8381831617835250505050610437565b50565b6103978282604051602401610315929190610580565b6040516020818303038152906040527f319af333000000000000000000000000000000000000000000000000000000007bffffffffffffffffffffffffffffffffffffffffffffffffffffffff19166020820180517bffffffffffffffffffffffffffffffffffffffffffffffffffffffff8381831617835250505050610437565b5050565b61043382826040516024016103b19291906105b0565b6040516020818303038152906040527f9710a9d0000000000000000000000000000000000000000000000000000000007bffffffffffffffffffffffffffffffffffffffffffffffffffffffff19166020820180517bffffffffffffffffffffffffffffffffffffffffffffffffffffffff8381831617835250505050610437565b5050565b60008151905060006a636f6e736f6c652e6c6f679050602083016000808483855afa5050505050565b600061046c8383610478565b60208301905092915050565b610481816106a6565b82525050565b610490816106a6565b82525050565b60006104a18261060b565b6104ab818561062e565b93506104b6836105fb565b8060005b838110156104e75781516104ce8882610460565b97506104d983610621565b9250506001810190506104ba565b5085935050505092915050565b60006104ff82610616565b610509818561063f565b93506105198185602086016106e2565b61052281610744565b840191505092915050565b610536816106d8565b82525050565b600060208201905081810360008301526105568184610496565b905092915050565b6000602082019050818103600083015261057881846104f4565b905092915050565b6000604082019050818103600083015261059a81856104f4565b90506105a96020830184610487565b9392505050565b600060408201905081810360008301526105ca81856104f4565b90506105d9602083018461052d565b9392505050565b60006020820190506105f5600083018461052d565b92915050565b6000819050602082019050919050565b600081519050919050565b600081519050919050565b6000602082019050919050565b600082825260208201905092915050565b600082825260208201905092915050565b600061065b826106d8565b9150610666836106d8565b9250827fffffffffffffffffffffffffffffffffffffffffffffffffffffffffffffffff0382111561069b5761069a610715565b5b828201905092915050565b60006106b1826106b8565b9050919050565b600073ffffffffffffffffffffffffffffffffffffffff82169050919050565b6000819050919050565b60005b838110156107005780820151818401526020810190506106e5565b8381111561070f576000848401525b50505050565b7f4e487b7100000000000000000000000000000000000000000000000000000000600052601160045260246000fd5b6000601f19601f830116905091905056fea2646970667358221220714a70a07429479b21a9614842056130a308a3e5b21aae11e47ddce4de287bbb64736f6c63430008040033497427732074696d6520746f20726f6c6c2074686520736d61727420776179212121",
    "linkReferences": {},
    "deployedLinkReferences": {}
}